{
  "contractName": "Donut",
  "abi": [
    {
      "inputs": [
        {
          "internalType": "address",
          "name": "",
          "type": "address"
        }
      ],
      "name": "balances",
      "outputs": [
        {
          "internalType": "uint256",
          "name": "",
          "type": "uint256"
        }
      ],
      "stateMutability": "view",
      "type": "function",
      "constant": true
    },
    {
      "inputs": [],
      "name": "price",
      "outputs": [
        {
          "internalType": "uint256",
          "name": "",
          "type": "uint256"
        }
      ],
      "stateMutability": "view",
      "type": "function",
      "constant": true
    },
    {
      "inputs": [],
      "name": "price2",
      "outputs": [
        {
          "internalType": "uint256",
          "name": "",
          "type": "uint256"
        }
      ],
      "stateMutability": "view",
      "type": "function",
      "constant": true
    },
    {
      "inputs": [],
      "name": "buy",
      "outputs": [],
      "stateMutability": "payable",
      "type": "function",
      "payable": true
    },
    {
      "inputs": [],
      "name": "buy2",
      "outputs": [],
      "stateMutability": "payable",
      "type": "function",
      "payable": true
    }
  ],
  "bytecode": "0x6080604052670de0b6b3a7640000600155674563918244f4000060025534801561002857600080fd5b5061042c806100386000396000f3fe60806040526004361061004a5760003560e01c806327a3181d1461004f57806327e235e31461007a57806386eac299146100b7578063a035b1fe146100c1578063a6f2ae3a146100ec575b600080fd5b34801561005b57600080fd5b506100646100f6565b604051610071919061026b565b60405180910390f35b34801561008657600080fd5b506100a1600480360381019061009c91906102e9565b6100fc565b6040516100ae919061026b565b60405180910390f35b6100bf610114565b005b3480156100cd57600080fd5b506100d66101b0565b6040516100e3919061026b565b60405180910390f35b6100f46101b6565b005b60025481565b60006020528060005260406000206000915090505481565b6002543414610158576040517f08c379a000000000000000000000000000000000000000000000000000000000815260040161014f90610373565b60405180910390fd5b60056000803373ffffffffffffffffffffffffffffffffffffffff1673ffffffffffffffffffffffffffffffffffffffff16815260200190815260200160002060008282546101a791906103c2565b92505081905550565b60015481565b60015434146101fa576040517f08c379a00000000000000000000000000000000000000000000000000000000081526004016101f190610373565b60405180910390fd5b60016000803373ffffffffffffffffffffffffffffffffffffffff1673ffffffffffffffffffffffffffffffffffffffff168152602001908152602001600020600082825461024991906103c2565b92505081905550565b6000819050919050565b61026581610252565b82525050565b6000602082019050610280600083018461025c565b92915050565b600080fd5b600073ffffffffffffffffffffffffffffffffffffffff82169050919050565b60006102b68261028b565b9050919050565b6102c6816102ab565b81146102d157600080fd5b50565b6000813590506102e3816102bd565b92915050565b6000602082840312156102ff576102fe610286565b5b600061030d848285016102d4565b91505092915050565b600082825260208201905092915050565b7f496e636f7272656374207061796d656e7420616d6f756e742e00000000000000600082015250565b600061035d601983610316565b915061036882610327565b602082019050919050565b6000602082019050818103600083015261038c81610350565b9050919050565b7f4e487b7100000000000000000000000000000000000000000000000000000000600052601160045260246000fd5b60006103cd82610252565b91506103d883610252565b92508282019050808211156103f0576103ef610393565b5b9291505056fea26469706673582212202fef5f4dc8eb0a499161697ff967548a5ebbebed8cde32637aaeaddc1cd43e2464736f6c63430008130033",
  "immutableReferences": {},
  "source": "// SPDX-License-Identifier: MIT\npragma solidity >=0.4.22 <0.9.0;\n\ncontract Donut {\n mapping(address => uint) public balances;\n    uint public price = 1 ether;\n    uint public price2 = 5 ether;\n    function buy() payable public {\n        require(msg.value == price, \"Incorrect payment amount.\");\n        balances[msg.sender] += 1;\n    }\n    function buy2() payable public {\n        require(msg.value == price2, \"Incorrect payment amount.\");\n        balances[msg.sender] += 5;\n    }\n}\n",
  "sourcePath": "D:\\sample1\\my-react-app\\contracts\\Donut.sol",
  "compiler": {
    "name": "solc",
    "version": "0.8.19+commit.7dd6d404.Emscripten.clang"
  },
  "schemaVersion": "3.4.13",
  "updatedAt": "2023-05-01T02:59:15.871Z",
  "networkType": "ethereum",
  "devdoc": {
    "kind": "dev",
    "methods": {},
    "version": 1
  },
  "userdoc": {
    "kind": "user",
    "methods": {},
    "version": 1
  }
}